:100000000C9462000C948A000C948A000C948A0070
:100010000C948A000C948A000C948A000C948A0038
:100020000C948A000C948A000C948A000C948A0028
:100030000C948A000C948A000C948A000C948A0018
:100040000C947D020C948A000C94ED020C94C7026F
:100050000C948A000C948A000C948A000C948A00F8
:100060000C948A000C948A000000000023002600F3
:10007000290000000000240027002A0000000000E2
:10008000250028002B0004040404040404040202D4
:100090000202020203030303030301020408102007
:1000A0004080010204081020010204081020000012
:1000B0000008000201000003040700000000000027
:1000C00000001F0311241FBECFEFD8E0DEBFCDBF5D
:1000D00011E0A0E0B1E0EEE7F9E002C005900D927A
:1000E000A231B107D9F721E0A2E1B1E001C01D9230
:1000F000AE3CB207E1F710E0C2E6D0E004C02197C1
:10010000FE010E94B704C136D107C9F70E946C03F3
:100110000C94BD040C940000833081F028F48130ED
:1001200099F08230A9F008958730A9F08830C9F09D
:100130008430B1F4809180008F7D03C08091800075
:100140008F7780938000089584B58F7784BD08955C
:1001500084B58F7DFBCF8091B0008F778093B00006
:1001600008958091B0008F7DF9CF1F93CF93DF93D7
:10017000282F30E0F901E255FF4F8491F901E6564E
:10018000FF4FD491F901EA57FF4FC491CC23A9F056
:10019000162F81110E948C00EC2FF0E0EE0FFF1F54
:1001A000E458FF4FA591B4918FB7F894EC911111D9
:1001B00008C0D095DE23DC938FBFDF91CF911F91D4
:1001C0000895DE2BF8CFCF93DF9390E0FC01E65645
:1001D000FF4F24918A579F4FFC0184918823D1F0CF
:1001E00090E0880F991FFC01EE58FF4FA591B49144
:1001F000FC01E458FF4FC591D49161110EC09FB727
:10020000F8948C91E22FE0958E238C932881E22341
:10021000E8839FBFDF91CF9108958FB7F894EC9159
:10022000E22BEC938FBFF6CF3FB7F8948091170184
:1002300090911801A0911901B0911A0126B5A89BBF
:1002400005C02F3F19F00196A11DB11D3FBFBA2F68
:10025000A92F982F8827BC01CD01620F711D811D28
:10026000911D42E0660F771F881F991F4A95D1F7AD
:100270000895AF92BF92CF92DF92EF92FF920F93C9
:100280001F93CF93DF936C017B018B01040F151F2C
:10029000EB015E01AE18BF08C017D10759F0699194
:1002A000D601ED91FC910190F081E02DC6010995F8
:1002B000892B79F7C501DF91CF911F910F91FF90A5
:1002C000EF90DF90CF90BF90AF900895FC01538DD9
:1002D000448D252F30E0842F90E0821B930B541720
:1002E00010F0CF96089501970895FC01918D828DAD
:1002F000981761F0A28DAE0FBF2FB11D5D968C9146
:10030000928D9F5F9F73928F90E008958FEF9FEF84
:100310000895FC01918D828D981731F0828DE80F40
:10032000F11D858D90E008958FEF9FEF0895FC01FA
:10033000918D228D892F90E0805C9F4F821B9109C7
:100340008F73992708958BE191E00E94970121E036
:10035000892B09F420E0822F089580E090E0892B1A
:1003600029F00E94A30181110C9400000895FC0162
:10037000A48DA80FB92FB11DA35ABF4F2C91848D06
:1003800090E001968F739927848FA689B7892C9363
:10039000A089B1898C91837080648C93938D848DB6
:1003A000981306C00288F389E02D80818F7D8083B9
:1003B0000895EF92FF920F931F93CF93DF93EC0179
:1003C00081E0888F9B8D8C8D98131AC0E889F989FC
:1003D000808185FF15C09FB7F894EE89FF896083FF
:1003E000E889F98980818370806480839FBF81E080
:1003F00090E0DF91CF911F910F91FF90EF900895C2
:10040000F62E0B8D10E00F5F1F4F0F731127E02E9C
:100410008C8D8E110CC00FB607FCFACFE889F989D4
:10042000808185FFF5CFCE010E94B701F1CFEB8D22
:10043000EC0FFD2FF11DE35AFF4FF0829FB7F894A8
:100440000B8FEA89FB8980818062CFCFCF93DF93C6
:10045000EC01888D8823B9F0AA89BB89E889F989DC
:100460008C9185FD03C0808186FD0DC00FB607FC11
:10047000F7CF8C9185FFF2CF808185FFEDCFCE0144
:100480000E94B701E9CFDF91CF9108950F931F9399
:10049000CF93DF93DC0112962D913C911397332774
:1004A000F901E255FF4F8491F901E656FF4FD491CF
:1004B000F901EA57FF4FC491C11107C090E080E0F5
:1004C000DF91CF911F910F9108958D0181110E94AD
:1004D0008C00EC2FF0E0EE0FFF1FE859FF4FA591C5
:1004E000B491EC91DE2351F3F80180819181019662
:1004F0009183808381E090E0E3CF1F920F920FB64B
:100500000F9211242F933F938F939F93AF93BF9399
:100510008091130190911401A0911501B0911601E1
:100520003091120123E0230F2D3758F50196A11DBC
:10053000B11D209312018093130190931401A09395
:100540001501B09316018091170190911801A091A7
:100550001901B0911A010196A11DB11D80931701D7
:1005600090931801A0931901B0931A01BF91AF9114
:100570009F918F913F912F910F900FBE0F901F90E1
:10058000189526E8230F0296A11DB11DD2CF1F9208
:100590000F920FB60F9211242F933F934F935F93B7
:1005A0006F937F938F939F93AF93BF93EF93FF933B
:1005B0008BE191E00E94B701FF91EF91BF91AF9164
:1005C0009F918F917F916F915F914F913F912F916B
:1005D0000F900FBE0F901F9018951F920F920FB69D
:1005E0000F9211242F938F939F93EF93FF93E0919A
:1005F0002B01F0912C018081E0913101F0913201C9
:1006000082FD1BC09081809134018F5F8F73209198
:100610003501821741F0E0913401F0E0E55EFE4FD4
:10062000958F80933401FF91EF919F918F912F913E
:100630000F900FBE0F901F9018958081F4CFEBE1C3
:10064000F1E01382128288EE93E0A0E0B0E08483B0
:100650009583A683B78384E091E09183808385ECC2
:1006600090E09587848784EC90E09787868780EC7C
:1006700090E0918B808B81EC90E0938B828B82EC6D
:1006800090E0958B848B86EC90E0978B868B118E17
:10069000128E138E148EECEBF1E088E090E09383E1
:1006A000828389E090E09583848387E090E091875E
:1006B000808786E090E09387828784E090E0978748
:1006C000868785E090E0918B808B8DE090E0909321
:1006D000B9018093B8010895789484B5826084BD8F
:1006E00084B5816084BD85B5826085BD85B5816036
:1006F00085BD80916E00816080936E0010928100B4
:10070000809181008260809381008091810081606E
:10071000809381008091800081608093800080912F
:10072000B10084608093B1008091B00081608093BB
:10073000B00080917A00846080937A0080917A0082
:10074000826080937A0080917A00816080937A0041
:1007500080917A00806880937A001092C10061E0F5
:100760008091B8010E94E3000EEC11E0CCEBD1E0E7
:1007700060E08A810E94E30061E08C810E94E300D6
:1007800026960C171D07A1F7E0912B01F0912C0183
:1007900082E08083E0912701F09128011082E091AE
:1007A0002901F0912A018FEC808310923301E091AE
:1007B0002F01F091300186E08083E0912D01F091CE
:1007C0002E01808180618083E0912D01F0912E01C6
:1007D000808188608083E0912D01F0912E018081DD
:1007E00080688083E0912D01F0912E0180818F7DC2
:1007F00080830E9414014B015C01F4E6CF2ED12CC2
:10080000E12CF12C0E941401681979098A099B09CD
:10081000683E734081059105A8F321E0C21AD10812
:10082000E108F10888EE880E83E0981EA11CB11C37
:10083000C114D104E104F10429F770E0C72E70E07F
:10084000D72EAA24A394B12C8CEB91E00E944602EF
:10085000892B09F47DC0B092BB01A092BA0161E07E
:100860008091B8010E94B5008CEB91E00E94460295
:10087000892BA9F482EC91E00E944602892B79F43D
:1008800088EC91E00E944602892B49F41092BB014A
:100890001092BA0160E08091B8010E94B5000CEBA3
:1008A00011E0C3E0D0E0F12CE12CC8010E94460227
:1008B000AE0121E030E041505109220F331F4115B4
:1008C0005105C9F7829FA001839F500D929F500D43
:1008D0001124E40EF51E21970A5F1F4F209729F778
:1008E0000CEB11E0C3E0D0E09E0181E090E02150EC
:1008F0003109880F991F21153105C9F7E816F90646
:1009000088F09E012F5F3F4F81E090E02150310938
:10091000880F991F21153105C9F7019761E0E81685
:10092000F90608F060E0F80184810E94B500219783
:100930000A5F1F4F2097C1F6C114D10409F484CF78
:100940000E94A301882309F47FCF0E9400007CCF7E
:1009500082EC91E00E944602892B09F07CCF88EC62
:1009600091E00E944602892B09F075CF7DCFEE0FF2
:0E097000FF1F0590F491E02D0994F894FFCF3D
:10097E0000000000D90139016601260297017501B8
:02098E008901DD
:00000001FF
